{
  "contractName": "Marketplace",
  "abi": [
    {
      "inputs": [
        {
          "internalType": "contract IERC721",
          "name": "_token",
          "type": "address"
        },
        {
          "internalType": "uint256",
          "name": "_feesPercent",
          "type": "uint256"
        }
      ],
      "stateMutability": "nonpayable",
      "type": "constructor"
    },
    {
      "anonymous": false,
      "inputs": [
        {
          "indexed": false,
          "internalType": "address",
          "name": "buyer",
          "type": "address"
        },
        {
          "indexed": false,
          "internalType": "address",
          "name": "seller",
          "type": "address"
        },
        {
          "indexed": false,
          "internalType": "uint256",
          "name": "tokenId",
          "type": "uint256"
        },
        {
          "indexed": false,
          "internalType": "uint256",
          "name": "price",
          "type": "uint256"
        }
      ],
      "name": "Buy",
      "type": "event"
    },
    {
      "anonymous": false,
      "inputs": [
        {
          "indexed": false,
          "internalType": "address",
          "name": "seller",
          "type": "address"
        },
        {
          "indexed": false,
          "internalType": "uint256",
          "name": "tokenId",
          "type": "uint256"
        },
        {
          "indexed": false,
          "internalType": "uint256",
          "name": "price",
          "type": "uint256"
        }
      ],
      "name": "Deposit",
      "type": "event"
    },
    {
      "anonymous": false,
      "inputs": [
        {
          "indexed": true,
          "internalType": "address",
          "name": "previousOwner",
          "type": "address"
        },
        {
          "indexed": true,
          "internalType": "address",
          "name": "newOwner",
          "type": "address"
        }
      ],
      "name": "OwnershipTransferred",
      "type": "event"
    },
    {
      "anonymous": false,
      "inputs": [
        {
          "indexed": false,
          "internalType": "address",
          "name": "seller",
          "type": "address"
        },
        {
          "indexed": false,
          "internalType": "uint256",
          "name": "tokenId",
          "type": "uint256"
        }
      ],
      "name": "Withdraw",
      "type": "event"
    },
    {
      "inputs": [
        {
          "internalType": "uint256",
          "name": "",
          "type": "uint256"
        }
      ],
      "name": "isOnSale",
      "outputs": [
        {
          "internalType": "bool",
          "name": "",
          "type": "bool"
        }
      ],
      "stateMutability": "view",
      "type": "function",
      "constant": true
    },
    {
      "inputs": [],
      "name": "owner",
      "outputs": [
        {
          "internalType": "address",
          "name": "",
          "type": "address"
        }
      ],
      "stateMutability": "view",
      "type": "function",
      "constant": true
    },
    {
      "inputs": [],
      "name": "renounceOwnership",
      "outputs": [],
      "stateMutability": "nonpayable",
      "type": "function"
    },
    {
      "inputs": [],
      "name": "token",
      "outputs": [
        {
          "internalType": "contract IERC721",
          "name": "",
          "type": "address"
        }
      ],
      "stateMutability": "view",
      "type": "function",
      "constant": true
    },
    {
      "inputs": [
        {
          "internalType": "uint256",
          "name": "",
          "type": "uint256"
        }
      ],
      "name": "tokenIdToPlanet",
      "outputs": [
        {
          "internalType": "uint256",
          "name": "tokenId",
          "type": "uint256"
        },
        {
          "internalType": "address payable",
          "name": "seller",
          "type": "address"
        },
        {
          "internalType": "uint256",
          "name": "price",
          "type": "uint256"
        }
      ],
      "stateMutability": "view",
      "type": "function",
      "constant": true
    },
    {
      "inputs": [
        {
          "internalType": "address",
          "name": "newOwner",
          "type": "address"
        }
      ],
      "name": "transferOwnership",
      "outputs": [],
      "stateMutability": "nonpayable",
      "type": "function"
    },
    {
      "inputs": [
        {
          "internalType": "uint256",
          "name": "tokenId",
          "type": "uint256"
        },
        {
          "internalType": "uint256",
          "name": "price",
          "type": "uint256"
        }
      ],
      "name": "deposit",
      "outputs": [],
      "stateMutability": "nonpayable",
      "type": "function"
    },
    {
      "inputs": [
        {
          "internalType": "uint256",
          "name": "tokenId",
          "type": "uint256"
        }
      ],
      "name": "withdraw",
      "outputs": [],
      "stateMutability": "nonpayable",
      "type": "function"
    },
    {
      "inputs": [
        {
          "internalType": "uint256",
          "name": "tokenId",
          "type": "uint256"
        }
      ],
      "name": "buy",
      "outputs": [],
      "stateMutability": "payable",
      "type": "function",
      "payable": true
    },
    {
      "inputs": [],
      "name": "collectFees",
      "outputs": [],
      "stateMutability": "nonpayable",
      "type": "function"
    },
    {
      "inputs": [
        {
          "internalType": "uint256",
          "name": "value",
          "type": "uint256"
        }
      ],
      "name": "setFeesPercent",
      "outputs": [],
      "stateMutability": "nonpayable",
      "type": "function"
    },
    {
      "inputs": [
        {
          "internalType": "address",
          "name": "operator",
          "type": "address"
        },
        {
          "internalType": "address",
          "name": "",
          "type": "address"
        },
        {
          "internalType": "uint256",
          "name": "",
          "type": "uint256"
        },
        {
          "internalType": "bytes",
          "name": "",
          "type": "bytes"
        }
      ],
      "name": "onERC721Received",
      "outputs": [
        {
          "internalType": "bytes4",
          "name": "",
          "type": "bytes4"
        }
      ],
      "stateMutability": "view",
      "type": "function",
      "constant": true
    }
  ],
  "bytecode": "0x60806040523480156200001157600080fd5b50604051620024c6380380620024c6833981810160405281019062000037919062000343565b620000576200004b620000b160201b60201c565b620000b960201b60201c565b81600160006101000a81548173ffffffffffffffffffffffffffffffffffffffff021916908373ffffffffffffffffffffffffffffffffffffffff160217905550620000a9816200017d60201b60201c565b505062000655565b600033905090565b60008060009054906101000a900473ffffffffffffffffffffffffffffffffffffffff169050816000806101000a81548173ffffffffffffffffffffffffffffffffffffffff021916908373ffffffffffffffffffffffffffffffffffffffff1602179055508173ffffffffffffffffffffffffffffffffffffffff168173ffffffffffffffffffffffffffffffffffffffff167f8be0079c531659141344cd1fd0a4f28419497f9722a3daafe3b4186f6b6457e060405160405180910390a35050565b6200018d620000b160201b60201c565b73ffffffffffffffffffffffffffffffffffffffff16620001b3620002ec60201b60201c565b73ffffffffffffffffffffffffffffffffffffffff16146200020c576040517f08c379a0000000000000000000000000000000000000000000000000000000008152600401620002039062000464565b60405180910390fd5b80600254141562000254576040517f08c379a00000000000000000000000000000000000000000000000000000000081526004016200024b9062000420565b60405180910390fd5b60008114156200029b576040517f08c379a0000000000000000000000000000000000000000000000000000000008152600401620002929062000442565b60405180910390fd5b6064811115620002e2576040517f08c379a0000000000000000000000000000000000000000000000000000000008152600401620002d99062000486565b60405180910390fd5b8060028190555050565b60008060009054906101000a900473ffffffffffffffffffffffffffffffffffffffff16905090565b600081519050620003268162000621565b92915050565b6000815190506200033d816200063b565b92915050565b600080604083850312156200035757600080fd5b6000620003678582860162000315565b92505060206200037a858286016200032c565b9150509250929050565b600062000393603983620004a8565b9150620003a0826200050b565b604082019050919050565b6000620003ba602383620004a8565b9150620003c7826200055a565b604082019050919050565b6000620003e1602083620004a8565b9150620003ee82620005a9565b602082019050919050565b600062000408602183620004a8565b91506200041582620005d2565b604082019050919050565b600060208201905081810360008301526200043b8162000384565b9050919050565b600060208201905081810360008301526200045d81620003ab565b9050919050565b600060208201905081810360008301526200047f81620003d2565b9050919050565b60006020820190508181036000830152620004a181620003f9565b9050919050565b600082825260208201905092915050565b6000620004c682620004e1565b9050919050565b6000620004da82620004b9565b9050919050565b600073ffffffffffffffffffffffffffffffffffffffff82169050919050565b6000819050919050565b7f4d61726b6574706c6163653a206e65772076616c75652063616e27742062652060008201527f7468652073616d652061732063757272656e742076616c756500000000000000602082015250565b7f4d61726b6574706c6163653a2076616c7565206d757374206e6f74206265207a60008201527f65726f0000000000000000000000000000000000000000000000000000000000602082015250565b7f4f776e61626c653a2063616c6c6572206973206e6f7420746865206f776e6572600082015250565b7f4d61726b6574706c6163653a2076616c7565206d7573742062656c6f7720313060008201527f3000000000000000000000000000000000000000000000000000000000000000602082015250565b6200062c81620004cd565b81146200063857600080fd5b50565b620006468162000501565b81146200065257600080fd5b50565b611e6180620006656000396000f3fe6080604052600436106100a75760003560e01c8063d96a094a11610064578063d96a094a14610194578063e2bbb158146101b0578063e750ed40146101d9578063f0f2805f14610218578063f2fde38b14610255578063fc0c546a1461027e576100a7565b8063150b7a02146100ac5780632e1a7d4d146100e9578063715018a6146101125780637e9abcd3146101295780638da5cb5b14610152578063c87965721461017d575b600080fd5b3480156100b857600080fd5b506100d360048036038101906100ce91906111b2565b6102a9565b6040516100e09190611610565b60405180910390f35b3480156100f557600080fd5b50610110600480360381019061010b9190611232565b61032c565b005b34801561011e57600080fd5b50610127610524565b005b34801561013557600080fd5b50610150600480360381019061014b9190611232565b6105ac565b005b34801561015e57600080fd5b506101676106ff565b60405161017491906114c7565b60405180910390f35b34801561018957600080fd5b50610192610728565b005b6101ae60048036038101906101a99190611232565b61083e565b005b3480156101bc57600080fd5b506101d760048036038101906101d2919061125b565b610a9c565b005b3480156101e557600080fd5b5061020060048036038101906101fb9190611232565b610da3565b60405161020f93929190611801565b60405180910390f35b34801561022457600080fd5b5061023f600480360381019061023a9190611232565b610ded565b60405161024c91906115f5565b60405180910390f35b34801561026157600080fd5b5061027c60048036038101906102779190611160565b610e0d565b005b34801561028a57600080fd5b50610293610f05565b6040516102a0919061162b565b60405180910390f35b60008573ffffffffffffffffffffffffffffffffffffffff163073ffffffffffffffffffffffffffffffffffffffff1614610319576040517f08c379a000000000000000000000000000000000000000000000000000000000815260040161031090611746565b60405180910390fd5b63150b7a0260e01b905095945050505050565b600060046000838152602001908152602001600020905081816000015414610389576040517f08c379a000000000000000000000000000000000000000000000000000000000815260040161038090611686565b60405180910390fd5b8060010160009054906101000a900473ffffffffffffffffffffffffffffffffffffffff1673ffffffffffffffffffffffffffffffffffffffff166103cc610f2b565b73ffffffffffffffffffffffffffffffffffffffff1614610422576040517f08c379a0000000000000000000000000000000000000000000000000000000008152600401610419906117c6565b60405180910390fd5b600160009054906101000a900473ffffffffffffffffffffffffffffffffffffffff1673ffffffffffffffffffffffffffffffffffffffff166342842e0e308360010160009054906101000a900473ffffffffffffffffffffffffffffffffffffffff16856040518463ffffffff1660e01b81526004016104a5939291906114e2565b600060405180830381600087803b1580156104bf57600080fd5b505af11580156104d3573d6000803e3d6000fd5b505050506104e081610f33565b7f884edad9ce6fa2440d8a54cc123490eb96d2768479d49ff9c7366125a9424364610509610f2b565b83604051610518929190611595565b60405180910390a15050565b61052c610f2b565b73ffffffffffffffffffffffffffffffffffffffff1661054a6106ff565b73ffffffffffffffffffffffffffffffffffffffff16146105a0576040517f08c379a000000000000000000000000000000000000000000000000000000000815260040161059790611786565b60405180910390fd5b6105aa6000610fb0565b565b6105b4610f2b565b73ffffffffffffffffffffffffffffffffffffffff166105d26106ff565b73ffffffffffffffffffffffffffffffffffffffff1614610628576040517f08c379a000000000000000000000000000000000000000000000000000000000815260040161061f90611786565b60405180910390fd5b80600254141561066d576040517f08c379a000000000000000000000000000000000000000000000000000000000815260040161066490611706565b60405180910390fd5b60008114156106b1576040517f08c379a00000000000000000000000000000000000000000000000000000000081526004016106a890611766565b60405180910390fd5b60648111156106f5576040517f08c379a00000000000000000000000000000000000000000000000000000000081526004016106ec906117a6565b60405180910390fd5b8060028190555050565b60008060009054906101000a900473ffffffffffffffffffffffffffffffffffffffff16905090565b610730610f2b565b73ffffffffffffffffffffffffffffffffffffffff1661074e6106ff565b73ffffffffffffffffffffffffffffffffffffffff16146107a4576040517f08c379a000000000000000000000000000000000000000000000000000000000815260040161079b90611786565b60405180910390fd5b600047905060008114156107ed576040517f08c379a00000000000000000000000000000000000000000000000000000000081526004016107e490611726565b60405180910390fd5b6107f56106ff565b73ffffffffffffffffffffffffffffffffffffffff166108fc479081150290604051600060405180830381858888f1935050505015801561083a573d6000803e3d6000fd5b5050565b60003390506000349050600060046000858152602001908152602001600020905060008160010160009054906101000a900473ffffffffffffffffffffffffffffffffffffffff16905061089185611074565b8073ffffffffffffffffffffffffffffffffffffffff168473ffffffffffffffffffffffffffffffffffffffff161415610900576040517f08c379a00000000000000000000000000000000000000000000000000000000081526004016108f790611666565b60405180910390fd5b8160020154831015610947576040517f08c379a000000000000000000000000000000000000000000000000000000000815260040161093e90611646565b60405180910390fd5b600160009054906101000a900473ffffffffffffffffffffffffffffffffffffffff1673ffffffffffffffffffffffffffffffffffffffff166342842e0e3086886040518463ffffffff1660e01b81526004016109a69392919061155e565b600060405180830381600087803b1580156109c057600080fd5b505af11580156109d4573d6000803e3d6000fd5b5050505060006064600254856109ea919061187a565b6109f49190611849565b905060008185610a0491906118d4565b90508273ffffffffffffffffffffffffffffffffffffffff166108fc829081150290604051600060405180830381858888f19350505050158015610a4c573d6000803e3d6000fd5b50610a5684610f33565b7f89f5adc174562e07c9c9b1cae7109bbecb21cf9d1b2847e550042b8653c54a0e86848988604051610a8b9493929190611519565b60405180910390a150505050505050565b6000610aa6610f2b565b90506000821415610aec576040517f08c379a0000000000000000000000000000000000000000000000000000000008152600401610ae3906116a6565b60405180910390fd5b8073ffffffffffffffffffffffffffffffffffffffff16600160009054906101000a900473ffffffffffffffffffffffffffffffffffffffff1673ffffffffffffffffffffffffffffffffffffffff16636352211e856040518263ffffffff1660e01b8152600401610b5e91906117e6565b60206040518083038186803b158015610b7657600080fd5b505afa158015610b8a573d6000803e3d6000fd5b505050506040513d601f19601f82011682018060405250810190610bae9190611189565b73ffffffffffffffffffffffffffffffffffffffff1614610c04576040517f08c379a0000000000000000000000000000000000000000000000000000000008152600401610bfb906116e6565b60405180910390fd5b600160009054906101000a900473ffffffffffffffffffffffffffffffffffffffff1673ffffffffffffffffffffffffffffffffffffffff166342842e0e8230866040518463ffffffff1660e01b8152600401610c639392919061155e565b600060405180830381600087803b158015610c7d57600080fd5b505af1158015610c91573d6000803e3d6000fd5b5050505060016003600085815260200190815260200160002060006101000a81548160ff02191690831515021790555060405180606001604052808481526020018273ffffffffffffffffffffffffffffffffffffffff16815260200183815250600460008581526020019081526020016000206000820151816000015560208201518160010160006101000a81548173ffffffffffffffffffffffffffffffffffffffff021916908373ffffffffffffffffffffffffffffffffffffffff160217905550604082015181600201559050507f90890809c654f11d6e72a28fa60149770a0d11ec6c92319d6ceb2bb0a4ea1a15818484604051610d96939291906115be565b60405180910390a1505050565b60046020528060005260406000206000915090508060000154908060010160009054906101000a900473ffffffffffffffffffffffffffffffffffffffff16908060020154905083565b60036020528060005260406000206000915054906101000a900460ff1681565b610e15610f2b565b73ffffffffffffffffffffffffffffffffffffffff16610e336106ff565b73ffffffffffffffffffffffffffffffffffffffff1614610e89576040517f08c379a0000000000000000000000000000000000000000000000000000000008152600401610e8090611786565b60405180910390fd5b600073ffffffffffffffffffffffffffffffffffffffff168173ffffffffffffffffffffffffffffffffffffffff161415610ef9576040517f08c379a0000000000000000000000000000000000000000000000000000000008152600401610ef0906116c6565b60405180910390fd5b610f0281610fb0565b50565b600160009054906101000a900473ffffffffffffffffffffffffffffffffffffffff1681565b600033905090565b6000816000015490506003600082815260200190815260200160002060006101000a81549060ff0219169055600460008281526020019081526020016000206000808201600090556001820160006101000a81549073ffffffffffffffffffffffffffffffffffffffff0219169055600282016000905550505050565b60008060009054906101000a900473ffffffffffffffffffffffffffffffffffffffff169050816000806101000a81548173ffffffffffffffffffffffffffffffffffffffff021916908373ffffffffffffffffffffffffffffffffffffffff1602179055508173ffffffffffffffffffffffffffffffffffffffff168173ffffffffffffffffffffffffffffffffffffffff167f8be0079c531659141344cd1fd0a4f28419497f9722a3daafe3b4186f6b6457e060405160405180910390a35050565b6003600082815260200190815260200160002060009054906101000a900460ff166110d4576040517f08c379a00000000000000000000000000000000000000000000000000000000081526004016110cb90611686565b60405180910390fd5b50565b6000813590506110e681611dfd565b92915050565b6000815190506110fb81611dfd565b92915050565b60008083601f84011261111357600080fd5b8235905067ffffffffffffffff81111561112c57600080fd5b60208301915083600182028301111561114457600080fd5b9250929050565b60008135905061115a81611e14565b92915050565b60006020828403121561117257600080fd5b6000611180848285016110d7565b91505092915050565b60006020828403121561119b57600080fd5b60006111a9848285016110ec565b91505092915050565b6000806000806000608086880312156111ca57600080fd5b60006111d8888289016110d7565b95505060206111e9888289016110d7565b94505060406111fa8882890161114b565b935050606086013567ffffffffffffffff81111561121757600080fd5b61122388828901611101565b92509250509295509295909350565b60006020828403121561124457600080fd5b60006112528482850161114b565b91505092915050565b6000806040838503121561126e57600080fd5b600061127c8582860161114b565b925050602061128d8582860161114b565b9150509250929050565b6112a08161198e565b82525050565b6112af8161191a565b82525050565b6112be81611908565b82525050565b6112cd8161192c565b82525050565b6112dc81611938565b82525050565b6112eb816119a0565b82525050565b60006112fe602683611838565b915061130982611a46565b604082019050919050565b6000611321602c83611838565b915061132c82611a95565b604082019050919050565b6000611344602b83611838565b915061134f82611ae4565b604082019050919050565b6000611367602183611838565b915061137282611b33565b604082019050919050565b600061138a602683611838565b915061139582611b82565b604082019050919050565b60006113ad602e83611838565b91506113b882611bd1565b604082019050919050565b60006113d0603983611838565b91506113db82611c20565b604082019050919050565b60006113f3601f83611838565b91506113fe82611c6f565b602082019050919050565b6000611416603283611838565b915061142182611c98565b604082019050919050565b6000611439602383611838565b915061144482611ce7565b604082019050919050565b600061145c602083611838565b915061146782611d36565b602082019050919050565b600061147f602183611838565b915061148a82611d5f565b604082019050919050565b60006114a2602e83611838565b91506114ad82611dae565b604082019050919050565b6114c181611984565b82525050565b60006020820190506114dc60008301846112b5565b92915050565b60006060820190506114f760008301866112b5565b6115046020830185611297565b61151160408301846114b8565b949350505050565b600060808201905061152e60008301876112b5565b61153b6020830186611297565b61154860408301856114b8565b61155560608301846114b8565b95945050505050565b600060608201905061157360008301866112b5565b61158060208301856112b5565b61158d60408301846114b8565b949350505050565b60006040820190506115aa60008301856112b5565b6115b760208301846114b8565b9392505050565b60006060820190506115d360008301866112b5565b6115e060208301856114b8565b6115ed60408301846114b8565b949350505050565b600060208201905061160a60008301846112c4565b92915050565b600060208201905061162560008301846112d3565b92915050565b600060208201905061164060008301846112e2565b92915050565b6000602082019050818103600083015261165f816112f1565b9050919050565b6000602082019050818103600083015261167f81611314565b9050919050565b6000602082019050818103600083015261169f81611337565b9050919050565b600060208201905081810360008301526116bf8161135a565b9050919050565b600060208201905081810360008301526116df8161137d565b9050919050565b600060208201905081810360008301526116ff816113a0565b9050919050565b6000602082019050818103600083015261171f816113c3565b9050919050565b6000602082019050818103600083015261173f816113e6565b9050919050565b6000602082019050818103600083015261175f81611409565b9050919050565b6000602082019050818103600083015261177f8161142c565b9050919050565b6000602082019050818103600083015261179f8161144f565b9050919050565b600060208201905081810360008301526117bf81611472565b9050919050565b600060208201905081810360008301526117df81611495565b9050919050565b60006020820190506117fb60008301846114b8565b92915050565b600060608201905061181660008301866114b8565b61182360208301856112a6565b61183060408301846114b8565b949350505050565b600082825260208201905092915050565b600061185482611984565b915061185f83611984565b92508261186f5761186e611a17565b5b828204905092915050565b600061188582611984565b915061189083611984565b9250817fffffffffffffffffffffffffffffffffffffffffffffffffffffffffffffffff04831182151516156118c9576118c86119e8565b5b828202905092915050565b60006118df82611984565b91506118ea83611984565b9250828210156118fd576118fc6119e8565b5b828203905092915050565b600061191382611964565b9050919050565b600061192582611964565b9050919050565b60008115159050919050565b60007fffffffff0000000000000000000000000000000000000000000000000000000082169050919050565b600073ffffffffffffffffffffffffffffffffffffffff82169050919050565b6000819050919050565b6000611999826119c4565b9050919050565b60006119ab826119b2565b9050919050565b60006119bd82611964565b9050919050565b60006119cf826119d6565b9050919050565b60006119e182611964565b9050919050565b7f4e487b7100000000000000000000000000000000000000000000000000000000600052601160045260246000fd5b7f4e487b7100000000000000000000000000000000000000000000000000000000600052601260045260246000fd5b7f4d61726b6574706c6163653a20676976656e207072696365206973206e6f742060008201527f656e6f7567680000000000000000000000000000000000000000000000000000602082015250565b7f4d61726b6574706c6163653a2073656c6c65722063616e27742062757920697460008201527f73206f776e20706c616e65740000000000000000000000000000000000000000602082015250565b7f4d61726b6574706c6163653a20746f6b656e206973206e6f742063757272656e60008201527f746c79206f6e2073616c65000000000000000000000000000000000000000000602082015250565b7f4d61726b6574706c6163653a2070726963652063616e6e6f74206265207a657260008201527f6f00000000000000000000000000000000000000000000000000000000000000602082015250565b7f4f776e61626c653a206e6577206f776e657220697320746865207a65726f206160008201527f6464726573730000000000000000000000000000000000000000000000000000602082015250565b7f4d61726b6574706c6163653a206f6e6c7920746f6b656e2773206f776e65722060008201527f63616e206465706f736974206974000000000000000000000000000000000000602082015250565b7f4d61726b6574706c6163653a206e65772076616c75652063616e27742062652060008201527f7468652073616d652061732063757272656e742076616c756500000000000000602082015250565b7f4d61726b6574706c6163653a206e6f206665657320746f20636f6c6c65637400600082015250565b7f4d61726b6574706c6163653a206f6e6c79206d61726b6574706c61636520636160008201527f6e2075736520746865207472616e736665720000000000000000000000000000602082015250565b7f4d61726b6574706c6163653a2076616c7565206d757374206e6f74206265207a60008201527f65726f0000000000000000000000000000000000000000000000000000000000602082015250565b7f4f776e61626c653a2063616c6c6572206973206e6f7420746865206f776e6572600082015250565b7f4d61726b6574706c6163653a2076616c7565206d7573742062656c6f7720313060008201527f3000000000000000000000000000000000000000000000000000000000000000602082015250565b7f4d61726b6574706c6163653a206f6e6c7920706c616e657427732073656c6c6560008201527f722063616e207769746864726177000000000000000000000000000000000000602082015250565b611e0681611908565b8114611e1157600080fd5b50565b611e1d81611984565b8114611e2857600080fd5b5056fea2646970667358221220d01ef97dd74cf5f3974303895818c855d9b7239cf640f17ff11f94e73a9aa76c64736f6c63430008020033",
  "immutableReferences": {},
  "source": "// SPDX-License-Identifier: MIT\r\npragma solidity ^0.8.2;\r\n\r\nimport \"@openzeppelin/contracts/access/Ownable.sol\";\r\nimport \"@openzeppelin/contracts/token/ERC721/IERC721.sol\";\r\nimport \"@openzeppelin/contracts/token/ERC721/IERC721Receiver.sol\";\r\n\r\ncontract Marketplace is Ownable, IERC721Receiver {\r\n    struct Planet {\r\n        uint256 tokenId;\r\n        address payable seller;\r\n        uint256 price;\r\n    }\r\n\r\n    event Deposit(address seller, uint256 tokenId, uint256 price);\r\n    event Withdraw(address seller, uint256 tokenId);\r\n    event Buy(address buyer, address seller, uint256 tokenId, uint256 price);\r\n\r\n    IERC721 public token;\r\n    uint256 feesPercent;\r\n\r\n    mapping(uint256 => bool) public isOnSale;\r\n    mapping(uint256 => Planet) public tokenIdToPlanet;\r\n\r\n    constructor(IERC721 _token, uint256 _feesPercent) {\r\n        token = _token;\r\n\r\n        setFeesPercent(_feesPercent);\r\n    }\r\n\r\n    function deposit(uint256 tokenId, uint256 price) public {\r\n        address seller = _msgSender();\r\n\r\n        require(price != 0, \"Marketplace: price cannot be zero\");\r\n        require(token.ownerOf(tokenId) == seller, \"Marketplace: only token's owner can deposit it\");\r\n\r\n        token.safeTransferFrom(seller, address(this), tokenId);\r\n\r\n        isOnSale[tokenId] = true;\r\n        tokenIdToPlanet[tokenId] = Planet({\r\n            tokenId: tokenId,\r\n            seller: payable(seller),\r\n            price: price\r\n        });\r\n\r\n        emit Deposit(seller, tokenId, price);\r\n    }\r\n\r\n    function withdraw(uint256 tokenId) public {\r\n        Planet storage planet = tokenIdToPlanet[tokenId];\r\n\r\n        require(planet.tokenId == tokenId, \"Marketplace: token is not currently on sale\");\r\n        require(_msgSender() == planet.seller, \"Marketplace: only planet's seller can withdraw\");\r\n\r\n        token.safeTransferFrom(address(this), planet.seller, tokenId);\r\n\r\n        _deletePlanet(planet);\r\n\r\n        emit Withdraw(_msgSender(), tokenId);\r\n    }\r\n\r\n    function buy(uint256 tokenId) public payable {\r\n        address buyer = msg.sender;\r\n        uint256 price = msg.value;\r\n\r\n        Planet storage planet = tokenIdToPlanet[tokenId];\r\n        address payable seller = planet.seller;\r\n\r\n        _requireOnSale(tokenId);\r\n        require(buyer != seller, \"Marketplace: seller can't buy its own planet\");\r\n        require(price >= planet.price, \"Marketplace: given price is not enough\");\r\n\r\n        token.safeTransferFrom(address(this), buyer, tokenId);\r\n\r\n        uint256 fees = price * feesPercent / 100;\r\n        uint256 paidToSeller = price - fees;\r\n\r\n        seller.transfer(paidToSeller);\r\n\r\n        _deletePlanet(planet);\r\n\r\n        emit Buy(buyer, seller, tokenId, price);\r\n    }\r\n\r\n    function collectFees() public onlyOwner {\r\n        uint256 balance = address(this).balance;\r\n\r\n        require(balance != 0, \"Marketplace: no fees to collect\");\r\n\r\n        payable(owner()).transfer(address(this).balance);\r\n    }\r\n\r\n    function setFeesPercent(uint256 value) public onlyOwner {\r\n        require(feesPercent != value, \"Marketplace: new value can't be the same as current value\");\r\n        require(value != 0, \"Marketplace: value must not be zero\");\r\n        require(value <= 100, \"Marketplace: value must below 100\");\r\n\r\n        feesPercent = value;\r\n    }\r\n    \r\n    function onERC721Received(\r\n        address operator,\r\n        address,\r\n        uint256,\r\n        bytes calldata\r\n    ) external view override returns (bytes4)\r\n    {\r\n      require(address(this) == operator, \"Marketplace: only marketplace can use the transfer\");\r\n\r\n      return Marketplace.onERC721Received.selector;\r\n    }\r\n\r\n    function _requireOnSale(uint256 tokenId) private view {\r\n        require(isOnSale[tokenId], \"Marketplace: token is not currently on sale\");\r\n    }\r\n\r\n    function _deletePlanet(Planet storage planet) private {\r\n        uint256 tokenId = planet.tokenId;\r\n\r\n        delete isOnSale[tokenId];\r\n        delete tokenIdToPlanet[tokenId];\r\n    }\r\n}",
  "sourcePath": "/mnt/c/Users/cacer/Desktop/starton/blockchain/contracts/Marketplace.sol",
  "compiler": {
    "name": "solc",
    "version": "0.8.2+commit.661d1103.Emscripten.clang"
  },
  "schemaVersion": "3.4.3",
  "updatedAt": "2021-12-05T14:33:59.802Z",
  "networkType": "ethereum",
  "devdoc": {
    "kind": "dev",
    "methods": {
      "owner()": {
        "details": "Returns the address of the current owner."
      },
      "renounceOwnership()": {
        "details": "Leaves the contract without owner. It will not be possible to call `onlyOwner` functions anymore. Can only be called by the current owner. NOTE: Renouncing ownership will leave the contract without an owner, thereby removing any functionality that is only available to the owner."
      },
      "transferOwnership(address)": {
        "details": "Transfers ownership of the contract to a new account (`newOwner`). Can only be called by the current owner."
      }
    },
    "version": 1
  },
  "userdoc": {
    "kind": "user",
    "methods": {},
    "version": 1
  }
}